:100000000C9462000C948A000C948A000C948A0070
:100010000C948A000C948A000C948A000C948A0038
:100020000C948A000C948A000C948A000C948A0028
:100030000C948A000C948A000C948A000C948A0018
:100040000C945A070C948A000C9428070C9402070D
:100050000C948A000C948A000C948A000C948A00F8
:100060000C948A000C948A000000000024002700F1
:100070002A0000000000250028002B0000000000DE
:1000800023002600290004040404040404040202DA
:100090000202020203030303030301020408102007
:1000A0004080010204081020010204081020000012
:1000B0000008000201000003040700000000000027
:1000C0000000A40711241FBECFEFD8E0DEBFCDBFD4
:1000D00022E0A0E8B1E001C01D92AE3EB207E1F718
:1000E00011E0A0E0B1E0EAEEF7E102C005900D9268
:1000F000A038B107D9F710E0C2E6D0E004C02197DC
:10010000FE010E94E80BC136D107C9F70E945408CE
:100110000C94F30B0C9400008A309105ACF52091FF
:10012000E6023091E7022115310571F1FC01EE0F75
:10013000FF1FEC59FD4F40815181452B29F1118260
:100140001082FC01E853FD4F1082FC01EE0FFF1FEF
:10015000EE52FD4F11821082FC01EE0FFF1FEE0FD9
:10016000FF1FE858FD4F1082118212821382880F00
:10017000991FFC01EC54FD4F11821082215031096E
:100180003093E7022093E602089580910201909156
:100190000301892BD1F48091990190919A01A0914A
:1001A0009B01B0919C018F312EE49207A105B1050E
:1001B00064F08F519E44A109B109809399019093F5
:1001C0009A01A0939B01B0939C0180919901909119
:1001D0009A01A0919B01B0919C018F312EE492076E
:1001E000A105B1055CF44397A109B1098093990178
:1001F00090939A01A0939B01B0939C0180919901E7
:1002000090919A01A0919B01B0919C018F3C27E0B5
:100210009207A105B1057CF410920301109202012E
:100220000197A109B1098093990190939A01A09334
:100230009B01B0939C0108958091990190919A013E
:10024000A0919B01B0919C01181619061A061B0675
:100250005CF40197A109B1098093990190939A01E7
:10026000A0939B01B0939C010895CF92DF92EF92EF
:10027000FF920F931F93CF93DF936C017A018B0151
:10028000C0E0D0E0CE15DF0589F0D8016D918D0179
:10029000D601ED91FC910190F081E02DC601099508
:1002A000892B11F47E0102C02196ECCFC701DF91AA
:1002B000CF911F910F91FF90EF90DF90CF90089515
:1002C000089580E090E00895FC01538D448D252F22
:1002D00030E0842F90E0821B930B541710F0CF96E0
:1002E000089501970895FC01918D828D981761F012
:1002F000828DDF01A80FB11D5D968C91928D9F5F5D
:100300009F73928F90E008958FEF9FEF0895FC0107
:10031000918D828D981731F0828DE80FF11D858DBA
:1003200090E008958FEF9FEF0895FC01918D228D4D
:10033000892F90E0805C9F4F821B91098F739927D2
:1003400008958FE991E00E94950121E0892B09F43D
:1003500020E0822F0895FC01848DDF01A80FB11DDC
:10036000A35ABF4F2C91848D90E001968F739927EB
:10037000848FA689B7892C93A089B1898C918064D8
:100380008C93938D848D981306C00288F389E02D99
:1003900080818F7D80830895EF92FF920F931F934A
:1003A000CF93DF93EC0181E0888F9B8D8C8D981328
:1003B00005C0E889F989808185FD24C0F62E0B8D62
:1003C00010E00F5F1F4F0F731127E02E8C8DE81286
:1003D0000CC00FB607FCFACFE889F989808185FF48
:1003E000F5CFCE010E94AB01F1CF8B8DFE01E80F5E
:1003F000F11DE35AFF4FF0820B8FEA89FB89808160
:10040000806207C0EE89FF896083E889F98980816D
:100410008064808381E090E0DF91CF911F910F9104
:10042000FF90EF900895CF93DF93EC01888D8823A0
:10043000C9F0EA89FB89808185FD05C0A889B98951
:100440008C9186FD0FC00FB607FCF5CF808185FF2C
:10045000F2CFA889B9898C9185FFEDCFCE010E949A
:10046000AB01E7CFDF91CF91089580E090E0892B39
:1004700029F00E94A10181110C940000089583309D
:1004800081F028F4813099F08230A1F0089587300E
:10049000A9F08830B9F08430D1F4809180008F7D4C
:1004A00003C0809180008F7780938000089584B589
:1004B0008F7702C084B58F7D84BD08958091B00090
:1004C0008F7703C08091B0008F7D8093B000089536
:1004D000CF93DF93282F30E0F901E255FF4F84914D
:1004E000F901E656FF4FD491F901EA57FF4FC49145
:1004F000CC2391F081110E943F02EC2FF0E0EE0F2F
:10050000FF1FE458FF4FA591B491EC91ED2381E0DA
:1005100090E021F480E002C080E090E0DF91CF9194
:1005200008951F93CF93DF93282F30E0F901E25510
:10053000FF4F8491F901E656FF4FD491F901EA5734
:10054000FF4FC491CC23C9F0162F81110E943F02A6
:10055000EC2FF0E0EE0FFF1FEE58FF4FA591B49186
:100560008FB7F894111105C09C91ED2FE095E92308
:1005700002C0EC91ED2BEC938FBFDF91CF911F91D7
:100580000895CF93DF9390E0FC01E656FF4F24914E
:10059000FC01EA57FF4F8491882361F190E0880FB6
:1005A000991FFC01E859FF4FC591D491FC01EE5809
:1005B000FF4FA591B491611109C09FB7F89488814C
:1005C000209582238883EC912E230BC0623061F446
:1005D0009FB7F8943881822F809583238883EC918C
:1005E0002E2B2C939FBF06C08FB7F894E8812E2B3B
:1005F00028838FBFDF91CF9108952FB7F894609132
:100600008E0170918F0180919001909191012FBF87
:100610000895CF93DF932091E6023091E7022A30CC
:1006200031050CF048C0E4E6F2E0C0E0D0E02191F2
:100630003191232BD9F541155105E9F1DC01CB01AD
:10064000FE01EE0FFF1FEE0FFF1FE858FD4F8083E6
:100650009183A283B383FE01EE0FFF1FEC59FD4F80
:1006600051834083FE01EE0FFF1FE056FD4F1182C4
:100670001082FE01E853FD4F81E080830E94FD025D
:10068000FE01EE0FFF1FEE0FFF1FE45CFD4F6083C6
:100690007183828393838091E6029091E7020196B1
:1006A0009093E7028093E602CE0107C02196CA30FC
:1006B000D10509F0BCCF8FEF9FEFDF91CF91089567
:1006C000CF92DF92EF92FF921F93CF93DF93EC01D3
:1006D00060E08B810E94C10261E08B810E949102E7
:1006E00098E0C92ED12C10E0E12EF12CF594E7947E
:1006F0001E2D60E08C810E9491028B810E94680215
:10070000892B09F0106861E08C810E94910281E0E0
:10071000C81AD10849F761E08B810E94C10260E0EC
:100720008B810E949102812FDF91CF911F91FF90C9
:10073000EF90DF90CF900895FF920F931F93CF9388
:10074000DF938C01F62EC8E0D0E060E0F8018481F0
:100750000E9491026F2D6170F80183810E949102C5
:10076000F69461E0F80184810E949102219769F773
:10077000DF91CF911F910F91FF900895EF92FF921B
:100780001F93CF93DF931F92CDB7DEB77C01162F57
:10079000DC01ED91FC910288F389E02D64E449834A
:1007A000099560E0F70185810E949102D701ED91E2
:1007B000FC91612F606C0688F789E02DC7010995CF
:1007C000D701ED91FC910688F789E02D4981642FCE
:1007D000C701099561E0F70185810F90DF91CF9105
:1007E0001F91FF90EF900C9491021F93CF93DF9392
:1007F000EC01162F60E08D810E949102E881F98161
:100800000688F789E02D612FCE01099561E08D8181
:10081000DF91CF911F910C9491023F924F925F9282
:100820006F927F928F929F92AF92BF92CF92DF9200
:10083000EF92FF920F931F93CF93DF937C016B0195
:100840004A01322EDB011496AD90BC901597C0E0A2
:10085000D0E0422E512C66246394712CF7018281E2
:1008600090E09C0124193509C217D307C4F5CA15B5
:10087000DB05ACF5D701ED91FC910088F189E02D05
:100880008C1B9D0B0197930102C0220F331F8A9589
:10089000E2F7C9018821992121E0892B09F420E0A0
:1008A000D60114968D919C911597C817D90748F4D5
:1008B0008D919C91009729F0DC01AC0FBD1F8C91AC
:1008C00001C080E0D801A80FB11D87FDBA959097AF
:1008D0006C2F630D4C91C70109952196BFCFDF9115
:1008E000CF911F910F91FF90EF90DF90CF90BF902D
:1008F000AF909F908F907F906F905F904F903F90C0
:1009000008955F926F927F928F929F92AF92BF9263
:10091000CF92DF92EF92FF920F931F93CF93DF93CB
:100920006C014A01522E7B01C0E0D0E0A22EB12C16
:1009300066246394712CD60112968C9190E09C01F0
:100940002A193B09C217D30744F5D7013D917D0110
:10095000332319F1D601ED91FC918C1B9D0B01976E
:10096000A30102C0440F551F8A95E2F7CA018821EE
:10097000992121E0892B09F420E0D801A30FB11DB2
:1009800037FDBA9590976C2F650D0088F189E02DA1
:100990004C91C60109952196CECFDF91CF911F9141
:1009A0000F91FF90EF90DF90CF90BF90AF909F900E
:1009B0008F907F906F905F9008950F931F93CF93C8
:1009C000DF938C01C0E0D0E0F801228130E0C21753
:1009D000D3076CF4D801ED91FC916C2F660F04885D
:1009E000F589E02D40E0C80109952196EDCFDF9112
:1009F000CF911F910F910895CF92DF92EF92FF92C6
:100A00001F93CF93DF936C017B01E40EF51EC62F7D
:100A1000D72F162F1095CE15DF0569F04991D60115
:100A2000ED91FC916C2F610F0088F189E02D20E0A1
:100A3000C6010995F0CFDF91CF911F91FF90EF9004
:100A4000DF90CF900895242FDC01ED91FC91008878
:100A5000F189E02D40E009940F931F93CF93DF932A
:100A6000EC01E881F9810084F185E02D48E050E057
:100A700064E071E0099508E010E08A8190E00817D1
:100A8000190764F4E881F9810680F781E02D40E0E0
:100A9000602FCE0109950F5F1F4FEFCFDF91CF91F0
:100AA0001F910F9108950F931F93CF93DF93EC0144
:100AB000842FE881F981962F9F70D801A90FB11D6D
:100AC0000088F189E02D4C91682FCE01DF91CF9104
:100AD0001F910F910994CF93DF93EC01E881F98185
:100AE0000288F389E02D611102C060E801C068E866
:100AF000483008F047E0642BCE01099560E08D8115
:100B00000E94910260E08C810E94910261E08C81E0
:100B10000E94910261E08D81DF91CF910C9491024E
:100B2000DC01ED91FC910488F589E02D211120E88C
:100B3000422B660F0994DF92EF92FF920F931F935F
:100B4000CF93DF938C0160E0DC0115968C910E94BD
:100B50009102D801ED91FC910688F789E02D62E4BD
:100B6000C8010995E12CF12CD12CD801ED91FC9113
:100B7000008CF18DE02DC8010995C82F0E2C01C005
:100B8000CC0F0A94EAF7CD29DC2EBFEFEB1AFB0A53
:100B9000E4E0EE16F10449F761E0D80115968C9176
:100BA0000E9491028C2FDF91CF911F910F91FF90A6
:100BB000EF90DF900895DC01862FED91FC91119765
:100BC000942F990F61E0690F0488F589E02D482F73
:100BD000CD010994EF92FF920F931F93CF938EE66E
:100BE000E82E81E0F82EC7E0F70161917F010CE06B
:100BF00011E020E04C2F88EE92E00E945305C15096
:100C000098F7CF911F910F91FF90EF9008950F9358
:100C10001F93CF93DF9384E00E946802EC018091E0
:100C20009201209761F581110DC081E080939201BE
:100C30000E94FD0260938501709386018093870175
:100C4000909388010E94FD02009185011091860118
:100C50002091870130918801DC01CB01801B910B31
:100C6000A20BB30B89359240A105B105C0F180916B
:100C70008401811134C081E08093840130C08823D5
:100C800059F01092920180918401882319F11092F9
:100C90008401C2E0D0E023C082E00E946802909309
:100CA0008301809382012091800130918101909392
:100CB000810180938001232B51F4019741F483E05B
:100CC0000E946802892B49F0C4E0D0E008C0C0E06F
:100CD000D0E005C0C1E0D0E002C0C3E0D0E0CE016A
:100CE000DF91CF911F910F910895009769F0FC015A
:100CF00001900020E9F73197AF01481B590BBC0167
:100D00008FE991E00C94350180E090E008958F9296
:100D10009F92AF92BF92CF92DF92EF92FF920F938A
:100D20001F93CF93DF93CDB7DEB7A1970FB6F8949B
:100D3000DEBF0FBECDBF6B017C0197FF31C0E091DC
:100D40009F01F091A0010190F081E02D6DE28FE90B
:100D500091E009958C0122273327A9012C193D091F
:100D60004E095F0919A2CE0181967C019AE0892E75
:100D7000912CA12CB12CCA01B901A50194010E94AA
:100D8000BE0B605DF70162937F01211531054105BE
:100D9000510589F7CF010E947506800F911F1DC074
:100DA0009B01AC0119A28E010F5D1F4F8AE0C82E76
:100DB000D12CE12CF12CCA01B901A70196010E94A6
:100DC000BE0B605DF80162938F012115310541056D
:100DD000510589F7CF010E947506A1960FB6F894C8
:100DE000DEBF0FBECDBFDF91CF911F910F91FF905E
:100DF000EF90DF90CF90BF90AF909F908F9008952D
:100E00000E94EE0B1F920F920FB60F9211242F9398
:100E10003F934F935F936F937F938F939F93AF9382
:100E2000BF93EF93FF938FE991E00E94AB01FF9195
:100E3000EF91BF91AF919F918F917F916F915F9152
:100E40004F913F912F910F900FBE0F901F901895CB
:100E50001F920F920FB60F9211242F938F939F938F
:100E6000EF93FF93E091AF01F091B0018081E091A9
:100E7000B501F091B60182FD12C090818091B80158
:100E80008F5F8F732091B901821751F0E091B80103
:100E9000F0E0E156FE4F958F8093B80101C080814C
:100EA000FF91EF919F918F912F910F900FBE0F9017
:100EB0001F9018951F920F920FB60F9211242F9327
:100EC0003F938F939F93AF93BF9380918E019091A7
:100ED0008F01A0919001B091910130918D0123E09B
:100EE000230F2D3720F40196A11DB11D05C026E862
:100EF000230F0296A11DB11D20938D0180938E01B9
:100F000090938F01A0939001B093910180918901FA
:100F100090918A01A0918B01B0918C010196A11D45
:100F2000B11D8093890190938A01A0938B01B093A6
:100F30008C01BF91AF919F918F913F912F910F9015
:100F40000FBE0F901F901895CF93DF931092A201C0
:100F50001092A10188EE93E0A0E0B0E08093A3019D
:100F60009093A401A093A501B093A60180E291E023
:100F70009093A00180939F0185EC90E09093AC0149
:100F80008093AB0184EC90E09093AE018093AD012F
:100F900080EC90E09093B0018093AF0181EC90E001
:100FA0009093B2018093B10182EC90E09093B401F0
:100FB0008093B30186EC90E09093B6018093B501E5
:100FC0001092B8011092B9011092BA011092BB01AF
:100FD00082E391E09093E9028093E80288E08093B5
:100FE000EB0299E09093EC0297E09093ED028093EE
:100FF000EA0261E00E94C10261E089E00E94C10250
:1010000061E087E00E94C10261E087E00E949102F6
:1010100061E089E00E94910260E488EE92E00E9423
:10102000F5036FE888EE92E00E94F50360E087E048
:101030000E94910260EC88EE92E00E949C03C0E165
:10104000D0E060E088EE92E00E949C032197C9F70F
:1010500061E087E00E94910280E591E09093E902CF
:101060008093E8020E94FD02C8ECD2E0E4E6F2E0E0
:101070004CE352E0199211921192DA016D937D9333
:101080008D939D93AD019F01225B3F4FD9011D922E
:101090001C92B2E0E837FB0769F71092E702109262
:1010A000E602DF91CF910895CF93DF9300D000D077
:1010B000CDB7DEB7789484B5826084BD84B5816095
:1010C00084BD85B5826085BD85B5816085BD809113
:1010D0006E00816080936E0010928100809181008B
:1010E0008260809381008091810081608093810083
:1010F000809180008160809380008091B100846045
:101100008093B1008091B00081608093B0008091A5
:101110007A00846080937A0080917A008260809364
:101120007A0080917A00816080937A0080917A00C1
:10113000806880937A001092C10060E082E00E9493
:10114000C10260E083E00E94C10260E084E00E948E
:10115000C10210929E0110929D0110929201E091A5
:10116000AF01F091B00182E08083E091AB01F0919A
:10117000AC011082E091AD01F091AE018FEC808363
:101180001092B701E091B301F091B40186E0808341
:10119000E091B101F091B201808180618083E091A2
:1011A000B101F091B201808188608083E091B1014A
:1011B000F091B201808180688083E091B101F0916B
:1011C000B20180818F7D8083E7E02E2E312C8091CB
:1011D0009D0190919E018130910589F11CF4892B2C
:1011E000B9F0AFC28230910509F4D0C0039709F07D
:1011F000A8C20E94FD024B015C01ACE3B2E0BC83DB
:10120000AB83E4EBF2E020E030E001E010E06AC103
:101210000E94EA050E940706029709F092C2809197
:101220009D0190919E01019690939E0180939D0156
:101230001092960188EE92E00E94DD0482C26EE672
:10124000C62E61E0D62E77E0E72EF12C80910001CA
:1012500090910101E816F90639F50E94FD024091CE
:101260009401509195012091930121110AC0B1E0A0
:10127000B09393010E94FD027093950160939401D5
:1012800024C08A01550F220B330B601B710B820B9C
:10129000930B28EE33E040E050E00E94BE0B643F29
:1012A00071408105910558F40CE011E020E04E2DCD
:1012B000D6016C9188EE92E00E94530506C040E092
:1012C0006E2D88EE92E00E942305B1E0EB1AF10842
:1012D000EFEFCE1ADE0AFFEFEF16FF0609F0B6CFEA
:1012E0000E9407068230910509F459C054F4019711
:1012F00009F027C28091960121E082278093960110
:1013000020C28330910519F00497F1F01AC22091A0
:1013100096018091000190910101211109C001966F
:1013200088309105ECF0109201011092000109C281
:10133000F101E81BF90BE259FE4F8081893314F06B
:1013400080E3C1C18F5FBFC12091960180910001F0
:101350009091010121110EC01816190634F401975D
:101360009093010180930001ECC130920101209221
:101370000001E7C1F101E81BF90BE259FE4F808142
:10138000813314F489E39FC181509DC10E94EA0515
:101390000E9407068230910539F481E090E0909335
:1013A0009E0180939D01CDC1019709F0CAC10EE64F
:1013B00011E0C12CD12C7601812C912C5401839405
:1013C000F801A1918F010A2E000CBB0BD097A5014B
:1013D00094010E94E00BC60ED71EE81EF91E87E797
:1013E00091E00E947506C501B4010E948706C701FD
:1013F000B6010E9487068DE791E00E947506AAE07B
:10140000B0E0A50194010E94A40B4B015C01F1E046
:1014100006371F07A9F6C0929901D0929A01E0926F
:101420009B01F0929C014091020150910301052E15
:10143000000C660B770B8091E6029091E7020A9709
:101440000CF047C0E4E6F2E000E010E081919191F9
:10145000892BC9F5F801EE0FFF1FEE0FFF1FE858AB
:10146000FD4F4083518362837383F801EE0FFF1FAA
:10147000EC59FD4F8CE191E091838083F801EE0FF0
:10148000FF1FE056FD4F11821082F801E853FD4F17
:1014900021E020830E94FD02F801EE0FFF1FEE0FF6
:1014A000FF1FE45CFD4F608371838283938380918F
:1014B000E6029091E70201969093E7028093E6029C
:1014C000902F812F08C00F5F1F4F0A30110509F0C0
:1014D000BDCF9FEF8FEF909397018093980183E0AA
:1014E00090E05DCF178E168ECF0180559109DC01FB
:1014F0008D919C91892B09F444C0AB81BC814D91A5
:101500005D916D917C911397DC96CD90DD90ED907F
:10151000FC90DF9724013501441A550A660A770AC0
:101520004C145D046E047F0460F14C0D5D1D6E1D56
:101530007F1D4D935D936D937C931397C9018853E1
:101540009D4FDC018C918823E1F0CF014497DC01B1
:101550004D915C914115510519F4178F068F11C0FB
:10156000808191818417950764F4178F068F019607
:10157000918380838417950724F082E090E0978F11
:10158000868F2F5F3F4FAB81BC811496BC83AB83AA
:1015900032962A30310509F0A5CF82EDE82E82E09F
:1015A000F82E00E010E0F701819191917F018130E8
:1015B000910561F0029781F4E057F1090190F08103
:1015C000E02D0995C8010E948C0006C0E057F10982
:1015D0000190F081E02D09950F5F1F4F0A30110532
:1015E00011F78090990190909A01A0909B01B09082
:1015F0009C018114F1EE9F06F5EFAF06F5E0BF0602
:1016000018F4C12CD12C29C088EE92E00E942C0540
:1016100034C0FA9481149104A104B10431F1FC188E
:10162000C501B4012AE030E040E050E00E94BE0B6A
:10163000722EE42E0CE011E020E04F2D88EE92E0B7
:1016400039835A830E945305872C3981932EAE2CFF
:101650005A81B52E2FEFC21AD20AF090EA028F2DCE
:1016600090E0C816D906ACF208C06F2D6C1940E0A6
:1016700088EE92E00E942305EDCF60910201709107
:101680000301072E000C880B990B0E9487068DE73B
:1016900091E00E9475060E94070683309105A9F02B
:1016A0008430910591F1019709F04BC0E0919701C9
:1016B000F0919801EA30F1050CF043C0E853FD4F7A
:1016C000808191E0892780833CC08091970190912F
:1016D00098010E948C00C0900201D0900301A4E602
:1016E000CA1AD108D0920301C09202010D2C000C3D
:1016F000EE08FF0845EC50E0C701B6010E9409035F
:101700004CE151E0C701B60116C08091970190915C
:1017100098010E948C0060910201709103016C5944
:101720007F4F7093030160930201072E000C880B1A
:10173000990B4CE151E00E9409039093980180932A
:1017400097010E94350243CD0E94AF0BA59F900DDB
:10175000B49F900DA49F800D911D11240895A29F08
:10176000B001B39FC001A39F700D811D1124911D75
:10177000B29F700D811D1124911D0895A1E21A2EB2
:10178000AA1BBB1BFD010DC0AA1FBB1FEE1FFF1F25
:10179000A217B307E407F50720F0A21BB30BE40B75
:1017A000F50B661F771F881F991F1A9469F76095BC
:1017B0007095809590959B01AC01BD01CF01089576
:1017C000B7FF0C94A40B0E94A40B821B930B0895EB
:1017D000EE0FFF1F0590F491E02D099481E090E059
:0A17E000F8940C94F30BF894FFCF7B
:1017EA000700E8037950505C500000003F065B4F49
:1017FA00666D7D077F6F777C395E79710000000026
:10180A00CC013501640113029501730187010000BF
:10181A0000006B0553052C052305FC04DD04810437
:10182A000D040007F503BE039C03600300000000DB
:10183A006B0553052C052305FC04DD0481040D0406
:10184A009005F503BE039C036003DB059B0530305E
:10185A0030303030303000434F44453A000A0000FF
:00000001FF
